:020000040000FA
:10000000803102288731E02F7108F3007008F20078
:10001000F336F20CF336F20C7208460199007008C0
:100020000339F2000530F235FF3E031D1328723507
:10003000980008008F31542780318E31A7268031F7
:100040008E31CB2680318E31B22680318E31BA2668
:10005000803181316621803121304001E2007630EB
:10006000890B3028E20B302800008131FA218031E1
:1000700021304001E2007630890B3C28E20B3C281D
:10008000000082318E22803121304001E200763042
:10009000890B4828E20B482800008031D8208031A5
:1000A000292880310228F430F5000130F600DB30D9
:1000B000F7000130F800D12898161A1699129A12F2
:1000C0009A10181218117E287508013EF5000030AC
:1000D000763DF6007708FF3EF700FF30783DF800E8
:1000E0007608F1007508F0008E31D9268031780845
:1000F000F1007708F00080310420803140016A0867
:10010000803AF4006808803A7402031D8928670861
:100110006902031C8C288D286428A8287508FF3ED6
:10012000F500FF30763DF6007708013EF70000301D
:10013000783DF8007608F1007508F0008E31D92678
:1001400080317808F1007708F00080310420803198
:1001500040016808803AF4006A08803A7402031D7E
:10016000B32869086702031CB628B7288E28C6285A
:100170007608F1007508F0008E31D92680317808B4
:10018000F1007708F00080310420803140016A08D6
:100190006806031DCD28690867060319D028D128F1
:1001A000B82840016F03031DD628D7285C28080013
:1001B00040016E08031DDD28DE28EC286F08031DB2
:1001C000E228E328EC286D08031DE728E828EC283E
:1001D0008E31C226803165296E08031DF028F12872
:1001E000FF286F08031DF528F628FF286D03031D5F
:1001F000FA28FB28FF288F311027803165296E08E7
:10020000031D0329042912296F03031D0829092945
:1002100012296D08031D0D290E2912298E31EF2692
:10022000803165296E08031D1629172922296F03BD
:10023000031D1B291C2922296D03031D20292129A7
:100240002229FB286E03031D2629272935296F083B
:10025000031D2B292C2935296D08031D302931292F
:10026000352980315320803165296E03031D3929DA
:100270003A2945296F08031D3E293F2945296D0369
:10028000031D43294429452931296E03031D4929AA
:100290004A2955296F03031D4E294F2955296D08F9
:1002A000031D5329542955290E296E03031D59296D
:1002B0005A2965296F03031D5E295F2965296D038E
:1002C000031D6329642965290E29080044018D0155
:1002D0008C014001E501E6019A17003240019A13B2
:1002E0000E1F73297429702944010E1440010E1F3A
:1002F0007A297B2980294E018D1E7F298029762924
:1003000044010E104E018D1A862987299D2944012A
:100310000D084001DF00E0015F08E000DF015F0839
:10032000E5046008E60444010C084001DF00E00138
:100330005F08E5046008E604A2294001E501E60142
:100340004E018D1240016508F0006608F100F201CF
:10035000F301003083312923813173084001A70064
:100360007208A6007108A5007008A4003F30A30021
:100370004C30A200CC30A100CD30A00085318925C1
:10038000813140012308C1002208C0002108BF00BC
:100390002008BE004230BD004030BC000030BB0031
:1003A0000030BA008331D523813140013D08D700A8
:1003B0003C08D6003B08D5003A08D4008F318B2783
:1003C000813140015508EC005408EB006C08803A7C
:1003D000DF0080305F02031DEF2902306B0203183B
:1003E000F229F329F7294001EF01EF0AF929400129
:1003F000EF01080044018D018C014001E301E4019B
:100400001A14003240011A108D1F072A082A042AE4
:1004100044010E1440018D1F0E2A0F2A142A4E018A
:100420008D1E132A142A0A2A44010E104E018D1A19
:100430001A2A1B2A312A44010D084001DF00E0017D
:100440005F08E000DF015F08E3046008E4044401A2
:100450000C084001DF00E0015F08E3046008E404E9
:10046000362A4001E301E4014E018D124001630888
:10047000F0006408F100F201F30100308331292318
:10048000813173084001A7007208A6007108A50019
:100490007008A4003F30A3004C30A200CC30A10073
:1004A000CD30A00085318925813140012308C1006C
:1004B0002208C0002108BF002008BE004230BD0055
:1004C0004030BC000030BB000030BA008331D5237F
:1004D000813140013D08D7003C08D6003B08D500DB
:1004E0003A08D4008F318B27813140015508EA004A
:1004F0005408E9006A08803ADF0080305F02031D7B
:10050000832A023069020318862A872A8B2A40012F
:10051000EE01EE0A8D2A4001EE01080044018D0132
:100520008C014101A201A3014001191700324001D1
:1005300019130D1E9C2A9D2A992A44010E1440016C
:100540000D1EA32AA42AA92A4E018D1EA82AA92A73
:100550009F2A44010E104E018D1AAF2AB02ACC2AD0
:1005600044010D084001DF00E0015F08E000DF0109
:100570005F084101A204400160084101A304440155
:100580000C084001DF00E0015F084101A2044001C6
:1005900060084101A304D12A4101A201A3014E0137
:1005A0008D1241012208F0002308F100F201F3014D
:1005B000003083312923823173084001A70072087B
:1005C000A6007108A5007008A4003F30A3004C30BD
:1005D000A200CC30A100CD30A00085318925823128
:1005E00040012308C1002208C0002108BF002008E4
:1005F000BE004230BD004030BC000030BB000030C7
:10060000BA008331D523823140013D08D7003C0830
:10061000D6003B08D5003A08D4008F318B278231B1
:1006200040015508E8005408E7006808803ADF00F8
:1006300080305F02031D1E2B023067020318212B3E
:10064000222B262B4001ED01ED0A282B4001ED0164
:100650000800F800780803192E2B2F2B432BF31FCB
:10066000322B332B432B7009FA007109FB007209FE
:10067000FC007309FD00FA0A0319FB0A0319FC0ABE
:100680000319FD0A4B2B7308FD007208FC0071086A
:10069000FB007008FA007308720471047004031DF3
:1006A000522B532B5C2B0030F3000030F200003053
:1006B000F1000030F000D42B9630F4007408F900FB
:1006C0006C2B0130F4007408F9070130FD36FC0C86
:1006D000FB0CFA0C890B662BFE307D05031D712B7C
:1006E000722B612B862B0130F4007408F90701305E
:1006F000FA070030FB3D0030FC3D0030FD3D01308D
:10070000FD36FC0CFB0CFA0C890B802BFF307D05B1
:10071000031D8B2B8C2B732B962B0130F902013090
:10072000FA35FB0DFC0DFD0D890B902BFC1B992B55
:100730009A2BA02B0230790203189F2BA02B8D2B14
:100740007918A32BA42BAC2BFF30FA05FF30FB0547
:100750007F30FC05FF30FD050310F90C7908F4002B
:10076000F501F601F7011830F435F50DF60DF70D2A
:10077000890BB42B7408FA047508FB047608FC0492
:100780007708FD0478080319C62BC72BCC2BF31F61
:10079000CA2BCB2BCC2BFD177D08F3007C08F20075
:1007A0007B08F1007A08F000080040014108803918
:1007B000C2004208CB004135C2004208D200C01F2F
:1007C000E22BE32BE42B521452080319E82BE92BFC
:1007D000F92B520A031DED2BEE2BF62B0030C10036
:1007E0000030C0000030BF000030BE00C017C101A3
:1007F000012C0030C1000030C0000030BF000030CC
:10080000BE003D088039C2004208CB063D35C2001B
:100810004208D300BC1F0D2C0E2C0F2C5314530870
:100820000319132C142C242C530A031D182C192CD7
:10083000212C0030BD000030BC000030BB00003077
:10084000BA00BC17BD012C2C0030BD000030BC002C
:100850000030BB000030BA003D083C043B043A04C1
:10086000031D332C342C4D2C0030C1000030C0004F
:100870000030BF000030BE008030C0047F30C104B3
:100880004B08C2004208C1044108BD004008BC003A
:100890003F08BB003E08BA00882D5208031D512CAA
:1008A000522C5B2C0030BD000030BC000030BB007F
:1008B0000030BA00882D5208C200C3014308C500A9
:1008C00053084202C400031CC50344087F3ECC0009
:1008D0000030453DCD004108CA004008C9003F082E
:1008E000C8003E08C7000030C1000030C000003022
:1008F000BF000030BE000030D1000030D00000301A
:10090000CF000030CE00D301C32C53080319892C2B
:100910008A2CA42C0130C735C80DC90DCA0D890B0E
:100920008B2C0130BE35BF0DC00DC10D890B922C33
:10093000D11F9B2C9C2C9D2C3E140130CE35CF0D0D
:10094000D00DD10D890B9E2C3D084A02031DB22CFF
:100950003C084902031DB22C3B084802031DB22C7F
:100960003A084702031CB52CB62CBF2C51173A0885
:10097000C7023B08C83B3C08C93B3D08CA3B0130A5
:10098000C2004208D3071A305302031CC82CC92CDA
:10099000852C4A084904480447040319D02CD12C5B
:1009A000EA2C4E14EA2C0130BE35BF0DC00DC10D2E
:1009B000890BD42CD11FDD2CDE2CDF2C3E14013012
:1009C000CE35CF0DD00DD10D890BE02CFF30CC07EB
:1009D000FF30CD3DC01FED2CEE2CD32CD301D11F09
:1009E000F22CF32C0F2DFF304E05C200FF304F05C7
:1009F000C300FF305005C4007F305105C5004508D5
:100A00004404430442040319062D072D0A2DD30183
:100A1000D30A0F2D3E1C0D2D0E2D0F2D072D530823
:100A20000319132D142D3C2D0130BE070030BF3D9E
:100A30000030C03D0030C13D411C1F2D202D3C2DFC
:100A40003E08C2003F08C3004008C4004108C5007A
:100A50000130C600C537C40CC30CC20CC60B2A2D0E
:100A60004508C1004408C0004308BF004208BE005A
:100A70000130CC070030CD3D4D08803AC2008030B7
:100A80004202031D452DFF304C02031C482D492D09
:100A9000562DFF304001CC000030CD000030C100A9
:100AA0000030C0000030BF000030BE0040014D08E3
:100AB000803AC20080304202031D602D01304C029A
:100AC0000318632D642D702D4001CC01CD01003041
:100AD000C1000030C0000030BF000030BE00CB01BC
:100AE00040014C08C2004208D200521C782D792DDA
:100AF0007B2DC0177F2D7F30C2004208C0055236C3
:100B0000C2004208C1004B08C2004208C104442C84
:100B10000800400123088039A8002808AD002335CB
:100B2000A8002808B300A21F962D972D982D3314E6
:100B3000330803199C2D9D2DAC2D330A031DA12DC7
:100B4000A22DAA2D0030A3000030A2000030A10089
:100B50000030A000A217B42D0030A3000030A20086
:100B60000030A1000030A00027088039A800280824
:100B7000AD062735A8002808B200A61FC02DC12D3C
:100B8000C22D321432080319C62DC72DD62D320AB4
:100B9000031DCB2DCC2DD42D0030A7000030A60096
:100BA0000030A5000030A400A617DE2D0030A700FD
:100BB0000030A6000030A5000030A4003208031960
:100BC000E22DE32DE82D3308031DE72DE82DF12D4F
:100BD0000030A3000030A2000030A1000030A000CF
:100BE000DF2F2008A8002808F00026088F313127C1
:100BF000853171084001B9007008B8003808A800B4
:100C0000A901AA01AB012B08B1002A08B0002908EC
:100C1000AF002808AE003908A800A901AA01AB015D
:100C20002B08B7002A08B6002908B5002808B40028
:100C30002108A8002808F00025088F3131278531C8
:100C400071084001B9007008B8003808A800A9016F
:100C5000AA01AB012808AE072908AF3D2A08B03D1C
:100C60002B08B13D3908A800A901AA01AB01280849
:100C7000B4072908B53D2A08B63D2B08B73D220820
:100C8000A8002808F00024088F3131278531710829
:100C90004001B9007008B8003808A800A901AA01ED
:100CA000AB012808AE072908AF3D2A08B03D2B0844
:100CB000B13D3908A800A901AA01AB012808B40771
:100CC0002908B53D2A08B63D2B08B73D0830AE359A
:100CD000AF0DB00DB10D890B672E2108A8002808B3
:100CE000F00024088F313127853171084001B900A7
:100CF0007008B8003808AE073908AF3D0030B03D85
:100D0000B13D2008A8002808F00025088F313127C0
:100D1000853171084001B9007008B8003808AE0785
:100D20003908AF3D0030B03DB13D0830AE35AF0DB4
:100D3000B00DB10D890B962E2008A8002808F000F0
:100D400024088F313127853171084001B9007008BE
:100D5000B8003808AE073908AF3D0030B03DB13DAE
:100D60002108A8002808F00026088F313127853196
:100D700071084001B9007008B8003808B407390894
:100D8000B53D0030B63DB73D2208A8002808F00068
:100D900025088F313127853171084001B90070086D
:100DA000B8003808B4073908B53D0030B63DB73D46
:100DB0002208A8002808F00026088F313127853145
:100DC00071084001B9007008B8003808A800390857
:100DD000A900AA01AB010830A835A90DAA0DAB0DD9
:100DE000890BEC2E2808B4072908B53D2A08B63D22
:100DF0002B08B73D2E08A8002F08A9003008AA002C
:100E00003108AB001830AB36AA0CA90CA80C890B22
:100E1000032F2808B4072908B53D2A08B63D2B083A
:100E2000B73D0830AE35AF0DB00DB10D890B122FA7
:100E300033083207A800A901A90D2808823EB8008E
:100E4000FF30293DB9003B2F0130B435B50DB60D4B
:100E5000B70D890B252FB11F2E2F2F2F302F3414B4
:100E60000130AE35AF0DB00DB10D890B312FFF3014
:100E7000B807FF30B93DB61F3E2F3F2F242FB201D8
:100E8000B11F432F442F602FFF302E05A800FF30E5
:100E90002F05A900FF303005AA007F303105AB00D7
:100EA0002B082A04290428040319572F582F5B2FD5
:100EB000B201B20A602F341C5E2F5F2F602F582FB3
:100EC00032080319642F652F8D2F0130B4070030CD
:100ED000B53D0030B63D0030B73D371C702F712F47
:100EE0008D2F3408A8003508A9003608AA00370855
:100EF000AB000130AC00AB37AA0CA90CA80CAC0BB2
:100F00007B2F2B08B7002A08B6002908B50028084F
:100F1000B4000130B8070030B93D3908803AA80064
:100F200080302802031D962FFF303802031C992FB2
:100F30009A2FA42F7F304001B7008030B6000030D8
:100F4000B5000030B400D32F40013908803AA80022
:100F500080302802031DAE2F013038020318B12F54
:100F6000B22FBD2F00304001B7000030B600003076
:100F7000B5000030B400AD01D32F40013808A800FF
:100F80002808B300FF30B405FF30B5057F30B60543
:100F90000030B705331CCD2FCE2FCF2FB6173336E9
:100FA000A8002808B7002D08A8002808B7043708AB
:100FB000A3003608A2003508A1003408A0000800EC
:100FC00041018E31A3268731A4008E31A4268731BA
:100FD000A5008E31A5268731A6008E31A626873141
:100FE000A70063308400003085000D308E31AC26C0
:100FF0008731A001A101A201A301400180311A287B
:101D4600E5340134F43401345101910193019201D7
:101D56000800640080010131890BAD2E00349030FB
:101D6600460196003E3095004030940008009030C1
:101D760046019A003E309900403098000800400124
:101D860098121A1299129A129A1018121815080017
:101D96000130450190008F019101F9308D008C01D1
:101DA6004E010D13803045018E0008007108F300C6
:101DB6007008F200F336F20CF336F20C72084601A4
:101DC600950070080339F2000530F235FF3E031D19
:101DD600E82E723594000800092FE530F600013030
:101DE600F70098161A1299129A169A1418121811C0
:101DF600F430F0000130F1008E31D9268E31E53015
:101E0600F0000130F100803104208E3140016F0373
:101E1600031D0E2F0F2FF02E08002A2FE530F60097
:101E26000130F70098121A1699169A129A10181677
:101E36001811F430F0000130F1008E31D9268F31BF
:101E4600E530F0000130F100803104208F3140018F
:101E56006F03031D2F2F302F112F0800F800F401F8
:101E6600F5017008F200F3017208F6007308F70036
:101E7600781C3E2F3F2F432F7608F4077708F53D51
:101E86000130F635F70D890B442F0310F80C78084E
:101E9600031D4E2F4F2F3B2F7508F1007408F000DD
:101EA60008004001980199019A010930920090308A
:101EB6009300403094007E01CE01C3010130B8008A
:101EC600C401B901CF01BA01C501D0013730BB0049
:101ED600F030C600FF30D1003F30BC00F030C70004
:101EE600FF30D200400192101211121292121313F7
:101EF600931214109410941114129412941314172C
:101F06001316931704307E0191000330A3000800D6
:101F160003104001560D570DD8005808DE005E0824
:101F2600031D962F972FA02F0030D7000030D60024
:101F36000030D5000030D400FF2F5408D8005508D3
:101F4600D9005608DA005708DB001F30DB36DA0CFA
:101F5600D90CD80C890BA92F5808DC005C08DD00C9
:101F6600D617FF30D405FF30D505FF30D605003033
:101F7600D7059630DE02DE1FC12FC22FDA2F5E088C
:101F8600803A973E0318C82FC92FCA2F972F0130C2
:101F9600D736D60CD50CD40C890BCB2F0130D800F4
:101FA6005808DE07031DD82FD92FCA2FEF2F203050
:101FB6005E02031CDF2FE02FEA2F972F0130D43566
:101FC600D50DD60DD70D890BE22F0130DE025E0846
:101FD600031DEE2FEF2FE12F5D080319F32FF42FCA
:101FE600FF2FD409D509D609D709D40A0319D50A6A
:0A1FF6000319D60A0319D70A0800E0
:020000040001F9
:04000E00ED3FE73F9C
:04001400FF3FFF3F6C
:00000001FF
